:020000040800F2
:100000000028002009180008991700089F17000809
:10001000A5170008AB170008B11700080000000082
:10002000000000000000000000000000B7170008FA
:10003000C317000800000000CF170008DB170008F6
:1000400051180008511800085118000851180008EC
:1000500051180008511800085118000851180008DC
:1000600051180008511800085118000851180008CC
:1000700051180008511800085118000851180008BC
:1000800051180008511800085118000851180008AC
:10009000511800085118000851180008511800089C
:1000A000511800085118000851180008511800088C
:1000B000E917000851180008000000005118000856
:1000C000511800080000000000000000511800084E
:1000D000000000005118000851180008000000003E
:1000E00051180008511800085118000800000000BD
:1000F0000000000000000000000000000000000000
:0C01000000000000000000005FF808F1A3
:10010C0010B5054C237833B9044B13B10448AFF345
:10011C0000800123237010BD680000200000000047
:10012C00782E000808B5034B1BB103490348AFF305
:10013C00008008BD000000006C000020782E000834
:10014C0080B483B000AF78607B680A2B5AD801A2C8
:10015C0052F823F08D01000899010008A501000850
:10016C00B1010008BD010008C9010008D501000853
:10017C00E1010008ED010008F90100080502000882
:10018C00234B1B68DA43234B1A613BE0204B5B6823
:10019C00DA43204B1A6135E01D4B9B68DA431D4B4B
:1001AC001A612FE01A4BDB68DA431A4B1A6129E00B
:1001BC00174B1B69DA43174B1A6123E0144B5B692D
:1001CC00DA43144B1A611DE0114B9B69DA43114B56
:1001DC001A6117E00E4BDB69DA430E4B1A6111E022
:1001EC000B4B1B6ADA430B4B1A610BE0084B5B6A37
:1001FC00DA43084B1A6105E0054B1B68DA43054BE3
:10020C001A6100BF00BF0C37BD4680BC704700BFF1
:10021C0000000020000C014080B500AF1D4B1B6896
:10022C00022B22D0022B33DC002B02D0012B0CD062
:10023C002EE000222021184801F007FE154B012268
:10024C001A60642001F00AFA22E0012220211248EF
:10025C0001F0FBFD114B1B68012B16D10D4B02223B
:10026C001A60642001F0FAF90FE0002220210A48FC
:10027C0001F0EBFD094B1B68012B08D1054B01224A
:10028C001A60642001F0EAF901E000BF00E000BF51
:10029C0000BF80BD8400002000080140AC0000209D
:1002AC0080B400AF064B1B68012B04D1044B002219
:1002BC001A60012300E000231846BD4680BC70473D
:1002CC008800002080B400AF064B1B68012B04D1C2
:1002DC00044B00221A60012300E000231846BD469F
:1002EC0080BC70478C00002080B400AF064B1B68AC
:1002FC00012B04D1044B00221A60012300E00023DF
:10030C001846BD4680BC70479800002080B400AFF2
:10031C00064B1B68012B04D1044B00221A600123ED
:10032C0000E000231846BD4680BC704790000020BA
:10033C0080B400AF064B1B68012B04D1044B002288
:10034C001A60012300E000231846BD4680BC7047AC
:10035C009C00002080B483B000AF78607B68002BD9
:10036C0002D10A4B01221A607B68012B02D1084B87
:10037C0001221A607B68022B02D1064B01221A6003
:10038C0000BF0C37BD4680BC704700BF8800002002
:10039C008C0000209000002080B483B000AF786007
:1003AC007B68002B02D10A4B01221A607B68012B5F
:1003BC0002D1084B01221A607B68022B02D1064B3A
:1003CC0001221A6000BF0C37BD4680BC704700BFCD
:1003DC0094000020980000209C00002080B582B082
:1003EC0000AF00237B6076E03F4A7B6852F8232005
:1003FC003E497B6841F823203D4A7B6852F8232014
:10040C0039497B6841F823204FF40051394801F0F9
:10041C0005FD03461A46364B1A604FF480413548A9
:10042C0001F0FCFC03461A46314B5A604FF4004174
:10043C00304801F0F3FC03461A462D4B9A602B4AC8
:10044C007B6852F8232028497B6851F823309A4264
:10045C003ED1254A7B6852F8232025497B6851F808
:10046C0023309A4234D1224A7B6852F82320224905
:10047C007B6851F823309A4215D01D4A7B6852F89C
:10048C0023201D497B6841F823201B4A7B6852F8C6
:10049C002330002B1CD1194B4FF496721A607868DC
:1004AC00FFF758FF14E0144A7B6852F82330002BF6
:1004BC000ED1124B1B68013B104A13600F4B1B688B
:1004CC00002B05D10D4B64221A607868FFF764FF8E
:1004DC007B6801337B607B68022B85DD00BF00BF2E
:1004EC000837BD4680BD00BF340000202800002026
:1004FC0040000020001001404C000020580000205B
:10050C0080B500AFA74B1B681E3B092B00F29082F5
:10051C0001A252F823F000BF4D050008C7050008E2
:10052C0041060008BB06000835070008B90700089B
:10053C0033080008AD080008270900089F090008C7
:10054C000020FFF7FDFDFFF7ABFE0346012B02D1A8
:10055C00944B00221A60FFF7B5FE0346012B02D123
:10056C00904B01221A60FFF7D1FE0346012B02D1FA
:10057C008C4B09221A60FFF7B7FE0346012B05D1FD
:10058C00884B15221A60642001F054F8FFF7D0FE56
:10059C000346012B05D1834B1D221A60642001F008
:1005AC0049F8814B1B68012B40F02F827D4B1E229A
:1005BC001A60642001F03EF827E20120FFF7C0FD2D
:1005CC00FFF76EFE0346012B02D1764B00221A6018
:1005DC00FFF778FE0346012B02D1724B02221A6000
:1005EC00FFF794FE0346012B02D16E4B00221A60DA
:1005FC00FFF77AFE0346012B05D16A4B16221A60CF
:10060C00642001F017F8FFF793FE0346012B05D188
:10061C00644B14221A60642001F00CF8624B1B68C6
:10062C00012B40F0F4815F4B1E221A60642001F014
:10063C0001F8ECE10220FFF783FDFFF731FE0346E2
:10064C00012B02D1574B00221A60FFF73BFE0346E9
:10065C00012B02D1534B03221A60FFF757FE0346BE
:10066C00012B02D14F4B01221A60FFF73DFE0346CE
:10067C00012B05D14B4B17221A60642000F0DAFFD6
:10068C00FFF756FE0346012B05D1464B15221A6087
:10069C00642000F0CFFF444B1B68012B40F0B98164
:1006AC00404B1F221A60642000F0C4FFB1E103200C
:1006BC00FFF746FDFFF7F4FD0346012B02D1394B42
:1006CC0000221A60FFF7FEFD0346012B02D1354BC9
:1006DC0004221A60FFF71AFE0346012B02D1314B9C
:1006EC0002221A60FFF700FE0346012B05D12D4BA9
:1006FC0018221A60642000F09DFFFFF719FE0346D4
:10070C00012B05D1274B16221A60642000F092FFB2
:10071C00254B1B68012B40F07E81224B20221A6056
:10072C00642000F087FF76E10420FFF709FDFFF756
:10073C00B7FD0346012B02D11A4B00221A60FFF7BA
:10074C00C1FD0346012B02D1164B05221A60FFF79F
:10075C00DDFD0346012B02D1124B03221A60FFF779
:10076C00C3FD0346012B05D10E4B19221A606420E0
:10077C0000F060FFFFF7DCFD0346012B05D1094BB0
:10078C0017221A60642000F055FF074B1B68012BE1
:10079C0040F04381034B21221A60642000F04AFF91
:1007AC003BE100BFA0000020A40000200520FFF7C3
:1007BC00C7FCFFF775FD0346012B02D19D4B0022B0
:1007CC001A60FFF77FFD0346012B02D1994B0622DD
:1007DC001A60FFF79BFD0346012B02D1954B0422B7
:1007EC001A60FFF781FD0346012B05D1914B1A22AC
:1007FC001A60642000F01EFFFFF79AFD0346012BE0
:10080C0005D18C4B18221A60642000F013FF8A4B20
:10081C001B68012B40F00381864B22221A60642056
:10082C0000F008FFFBE00620FFF78AFCFFF738FD1D
:10083C000346012B02D17F4B00221A60FFF742FDC9
:10084C000346012B02D17B4B07221A60FFF75EFD9A
:10085C000346012B02D1774B05221A60FFF744FDAA
:10086C000346012B05D1734B1B221A60642000F048
:10087C00E1FEFFF75DFD0346012B05D16D4B1922FF
:10088C001A60642000F0D6FE6B4B1B68012B40F005
:10089C00C880684B23221A60642000F0CBFEC0E0B5
:1008AC000720FFF74DFCFFF7FBFC0346012B02D1A1
:1008BC00604B00221A60FFF705FD0346012B02D1A5
:1008CC005C4B08221A60FFF721FD0346012B02D175
:1008DC00584B06221A60FFF707FD0346012B05D182
:1008EC00544B1C221A60642000F0A4FEFFF720FD7C
:1008FC000346012B05D14F4B1A221A60642000F0DD
:10090C0099FE4D4B1B68012B40F08D80494B2422E6
:10091C001A60642000F08EFE85E00820FFF710FCC2
:10092C00FFF7BEFC0346012B02D1424B00221A609A
:10093C00FFF7C8FC0346012B02D13E4B09221A607B
:10094C00FFF7E4FC0346012B02D13A4B07221A6055
:10095C00FFF7CAFC0346012B05D1364B1D221A604A
:10096C00642000F067FEFFF7E3FC0346012B05D182
:10097C00304B1B221A60642000F05CFE2E4B1B686F
:10098C00012B52D12B4B25221A60642000F052FE11
:10099C004BE00920FFF7D4FBFFF782FC0346012B49
:1009AC0002D1244B00221A60FFF78CFC0346012B6A
:1009BC0002D1204B00221A60FFF7A8FC0346012B42
:1009CC0002D11C4B08221A60FFF78EFC0346012B48
:1009DC0005D1184B00221A60642000F02BFEFFF7A3
:1009EC00A7FC0346012B05D1124B02221A6064208E
:1009FC0000F020FE104B1B68012B18D10D4B26224A
:100A0C001A60642000F016FE11E000BF10E000BF79
:100A1C000EE000BF0CE000BF0AE000BF08E000BF22
:100A2C0006E000BF04E000BF02E000BF00E000BF32
:100A3C0000BF80BDA0000020A400002080B500AF46
:100A4C00BC4B1B68143B092B00F2E28101A252F84B
:100A5C0023F000BF890A0008E10A0008390B0008DE
:100A6C00910B0008E90B0008410C0008990C0008D8
:100A7C00F10C0008510D0008A10D00080020FFF733
:100A8C005FFBFFF70DFC0346012B02D1A94B0022A3
:100A9C001A60A94B1B68012B40F0A781FFF724FCBF
:100AAC000346012B06D1A34B15221A60642000F0DB
:100ABC00C1FD9AE1FFF718FC0346012B06D19D4BB3
:100ACC001D221A60642000F0B5FD8EE1994B0022C6
:100ADC001A608AE10120FFF733FBFFF7E1FB0346C5
:100AEC00012B02D1934B00221A60934B1B68012BF4
:100AFC0040F07D81FFF7F8FB0346012B06D18D4BAF
:100B0C0016221A60642000F095FD70E1FFF710FCCE
:100B1C000346012B06D1874B14221A60642000F087
:100B2C0089FD64E1834B01221A6060E10220FFF72A
:100B3C0007FBFFF7B5FB0346012B02D17D4B0022CF
:100B4C001A607D4B1B68012B40F05381FFF7CCFBE7
:100B5C000346012B06D1774B17221A60642000F054
:100B6C0069FD46E1FFF7E4FB0346012B06D1714B0F
:100B7C0015221A60642000F05DFD3AE16D4B0222F3
:100B8C001A6036E10320FFF7DBFAFFF789FB034617
:100B9C00012B02D1674B00221A60674B1B68012B9B
:100BAC0040F02981FFF7A0FB0346012B06D1614BD6
:100BBC0018221A60642000F03DFD1CE1FFF7B8FB21
:100BCC000346012B06D15B4B16221A60642000F001
:100BDC0031FD10E1574B03221A600CE10420FFF7A2
:100BEC00AFFAFFF75DFB0346012B02D1514B0022FC
:100BFC001A60514B1B68012B40F0FF80FFF774FB10
:100C0C000346012B06D14B4B19221A60642000F0CD
:100C1C0011FDF2E0FFF78CFB0346012B06D1454B8F
:100C2C0017221A60642000F005FDE6E0414B042217
:100C3C001A60E2E00520FFF783FAFFF731FB034669
:100C4C00012B02D13B4B00221A603B4B1B68012B42
:100C5C0040F0D580FFF748FB0346012B06D1354BFE
:100C6C001A221A60642000F0E5FCC8E0FFF760FB74
:100C7C000346012B06D12F4B18221A60642000F07A
:100C8C00D9FCBCE02B4B05221A60B8E00620FFF71C
:100C9C0057FAFFF705FB0346012B02D1254B002227
:100CAC001A60254B1B68012B40F0AB80FFF71CFB37
:100CBC000346012B06D11F4B1B221A60642000F047
:100CCC00B9FC9EE0FFF734FB0346012B06D1194B10
:100CDC0019221A60642000F0ADFC92E0154B06223C
:100CEC001A608EE00720FFF72BFAFFF7D9FA0346BC
:100CFC00012B02D10F4B00221A600F4B1B68012BEA
:100D0C0040F08180FFF7F0FA0346012B06D1094B26
:100D1C001C221A60642000F08DFC74E0FFF708FBC5
:100D2C000346012B0AD1034B1A221A60642000F0EF
:100D3C0081FC68E0A0000020A4000020354B0722B5
:100D4C001A6060E00820FFF7FBF9FFF7A9FA0346E9
:100D5C00012B02D12F4B00221A602F4B1B68012B49
:100D6C0053D1FFF7C1FA0346012B06D1294B1D22A3
:100D7C001A60642000F05EFC47E0FFF7D9FA0346E6
:100D8C00012B03D1234B1B221A603EE0214B08227E
:100D9C001A603AE00920FFF7D3F9FFF781FA03460E
:100DAC00012B02D11B4B00221A601B4B1B68012B21
:100DBC002DD1FFF799FA0346012B06D1154B1422BE
:100DCC001A60642000F036FC21E0FFF7B1FA03460C
:100DDC00012B06D10F4B1C221A60642000F02AFC58
:100DEC0015E00C4B09221A6011E000BF10E000BFA7
:100DFC000EE000BF0CE000BF0AE000BF08E000BF3F
:100E0C0006E000BF04E000BF02E000BF00E000BF4E
:100E1C0000BF80BDA0000020A400002080B500AF62
:100E2C00B34B1B68092B00F2D48201A252F823F0B9
:100E3C00650E0008DB0E0008570F0008E30F0008D2
:100E4C006F10000805110008911100081D12000810
:100E5C00A9120008331300080020FFF771F9FFF7FF
:100E6C001FFA0346012B02D1A14B00221A60FFF797
:100E7C0029FA0346012B06D19D4B01221A604FF42F
:100E8C007A7000F0D7FBFFF741FA0346012B06D12D
:100E9C00974B09221A604FF47A7000F0CBFBFFF7E6
:100EAC0023FA0346012B05D1914B15221A606420BD
:100EBC0000F0C0FBFFF73CFA0346012B40F07882B0
:100ECC008B4B1D221A60642000F0B4FB70E2FFF71C
:100EDC00E7F90346012B02D1854B00221A60FFF77C
:100EEC00F1F90346012B06D1814B02221A604FF413
:100EFC007A7000F09FFBFFF709FA0346012B06D12D
:100F0C007B4B00221A604FF47A7000F093FBFFF7D2
:100F1C00EBF90346012B05D1754B16221A606420A0
:100F2C0000F088FBFFF704FA0346012B06D1704B47
:100F3C0014221A60642000F07DFB4AE26C4B1F22E5
:100F4C001A60642000F076FB43E20220FFF7F8F809
:100F5C00FFF7A6F90346012B02D1654B00221A605C
:100F6C00FFF7B0F90346012B06D1614B03221A603F
:100F7C004FF47A7000F05EFBFFF7C8F90346012BC3
:100F8C0006D15B4B01221A604FF47A7000F052FBD1
:100F9C00FFF7AAF90346012B05D1554B17221A600E
:100FAC00642000F047FBFFF7C3F90346012B06D181
:100FBC004F4B15221A60642000F03CFBFAE14D4BBC
:100FCC001B68012B40F0F681494B20221A606420EB
:100FDC0000F030FBEEE10320FFF7B2F8FFF760F909
:100FEC000346012B02D1424B00221A60FFF76AF92B
:100FFC000346012B06D13E4B04221A604FF47A7043
:10100C0000F018FBFFF782F90346012B06D1384B91
:10101C0002221A604FF47A7000F00CFBFFF764F9AF
:10102C000346012B05D1324B18221A60642000F0C4
:10103C0001FBFFF77DF90346012B06D12C4B162241
:10104C001A60642000F0F6FAB6E12A4B1B68012BFB
:10105C0040F0B281264B21221A60642000F0EAFA9B
:10106C00AAE10420FFF76CF8FFF71AF90346012BED
:10107C0002D11F4B00221A60FFF724F90346012B03
:10108C0006D11B4B05221A604FF47A7000F0D2FA8D
:10109C00FFF73CF90346012B06D1154B03221A60CE
:1010AC004FF47A7000F0C6FAFFF71EF90346012BD5
:1010BC0005D10F4B19221A60642000F0BBFAFFF720
:1010CC0037F90346012B06D1094B17221A6064200D
:1010DC0000F0B0FA72E1074B1B68012B40F06E81F7
:1010EC00034B22221A60642000F0A4FA66E100BFD0
:1010FC00A0000020A40000200520FFF721F8FFF736
:10110C00CFF80346012B02D1B34B00221A60FFF734
:10111C00D9F80346012B06D1AF4B06221A604FF4C7
:10112C007A7000F087FAFFF7F1F80346012B06D12D
:10113C00A94B04221A604FF47A7000F07BFAFFF787
:10114C00D3F80346012B05D1A34B1A221A60642055
:10115C0000F070FAFFF7ECF80346012B06D19E4B1A
:10116C0018221A60642000F065FA29E19B4B1B6879
:10117C00012B40F02581984B23221A60642000F04B
:10118C0059FA1DE10620FEF7DBFFFFF789F803464D
:10119C00012B02D1904B00221A60FFF793F8034603
:1011AC00012B06D18C4B07221A604FF47A7000F099
:1011BC0041FAFFF7ABF80346012B06D1864B05220B
:1011CC001A604FF47A7000F035FAFFF78DF8034689
:1011DC00012B05D1804B1B221A60642000F02AFAE7
:1011EC00FFF7A6F80346012B06D17B4B19221A6098
:1011FC00642000F01FFAE5E0784B1B68012B40F0EF
:10120C00E180754B24221A60642000F013FAD9E0B7
:10121C000720FEF795FFFFF743F80346012B02D199
:10122C006D4B00221A60FFF74DF80346012B06D1D7
:10123C00694B08221A604FF47A7000F0FBF9FFF743
:10124C0065F80346012B06D1634B06221A604FF456
:10125C007A7000F0EFF9FFF747F80346012B05D140
:10126C005D4B1C221A60642000F0E4F9FFF760F873
:10127C000346012B06D1584B1A221A60642000F049
:10128C00D9F9A1E0554B1B68012B40F09D80524BC6
:10129C0025221A60642000F0CDF995E00820FEF7B5
:1012AC004FFFFEF7FDFF0346012B02D14A4B0022F4
:1012BC001A60FFF707F80346012B06D1464B0922AB
:1012CC001A604FF47A7000F0B5F9FFF71FF8034677
:1012DC00012B06D1404B07221A604FF47A7000F0B4
:1012EC00A9F9FFF701F80346012B05D13A4B1D2252
:1012FC001A60642000F09EF9FFF71AF80346012BE0
:10130C0006D1354B1B221A60642000F093F95DE086
:10131C00324B1B68012B59D12F4B26221A606420AB
:10132C0000F088F952E00920FEF70AFFFEF7B8FF3B
:10133C000346012B02D1284B00221A60FEF7C2FF94
:10134C000346012B06D1244B00221A604FF47A700D
:10135C0000F070F9FEF7DAFF0346012B06D11E4BA5
:10136C0008221A604FF47A7000F064F9FEF7BCFFA3
:10137C000346012B05D1184B14221A60642000F08F
:10138C0059F9FEF7D5FF0346012B06D1124B1C224F
:10139C001A60642000F04EF91AE0104B1B68012B08
:1013AC0016D10D4B27221A60642000F043F90FE090
:1013BC0000BF0EE000BF0CE000BF0AE000BF08E079
:1013CC0000BF06E000BF04E000BF02E000BF00E089
:1013DC0000BF00BF80BD00BFA0000020A400002003
:1013EC0080B500AF00F030FA00F01CF800F0A2F865
:1013FC0000F054F8084801F079F9084B00221A6003
:10140C00074B00221A60FFF709FDFFF717FBFFF7E8
:10141C0077F8FEF701FFF6E7B40000208400002007
:10142C00A000002080B590B000AF07F1180328226F
:10143C000021184601F012FD3B1D00221A605A6073
:10144C009A60DA601A610223BB610123BB6210232C
:10145C00FB6200237B6307F11803184600F00EFDB6
:10146C000346002B01D000F0DFF80F237B60002334
:10147C00BB600023FB6000233B6100237B613B1DB1
:10148C000021184600F07AFF0346002B01D000F033
:10149C00CBF800BF4037BD4680BD000080B586B09C
:1014AC0000AF07F1080300221A605A609A60DA60F4
:1014BC003B4600221A605A601D4B4FF080421A6066
:1014CC001B4B41F63F725A60194B00229A60184B25
:1014DC000922DA60164B00221A61154B00229A6120
:1014EC00134801F0B3F80346002B01D000F09CF830
:1014FC004FF48053BB6007F1080319460C4801F008
:10150C0049FA0346002B01D000F08EF800233B6013
:10151C0000237B603B461946054801F011FC03464D
:10152C00002B01D000F080F800BF1837BD4680BDFD
:10153C00B400002080B588B000AF07F11003002282
:10154C001A605A609A60DA602D4B9B692C4A43F002
:10155C00100393612A4B9B6903F01003FB60FB683B
:10156C00274B9B69264A43F004039361244B9B69E8
:10157C0003F00403BB60BB68214B9B69204A43F01A
:10158C00080393611E4B9B6903F008037B607B6827
:10159C00002270211B4800F058FC00227F211A48C1
:1015AC0000F053FC4FF460433B6100237B6101234B
:1015BC00BB6107F110031946144800F0B5FA70230B
:1015CC003B6101237B610023BB610223FB6107F1BB
:1015DC00100319460B4800F0A7FA7F233B61012347
:1015EC007B610023BB610223FB6107F110031946E9
:1015FC00054800F099FA00BF2037BD4680BD00BFFA
:10160C000010024000080140000C01400010014095
:10161C0080B582B000AF786000F034F8FEF7DEFEE3
:10162C0000BF0837BD4680BD80B400AF72B600BFA6
:10163C00FEE7000080B483B000AF7860054A7B6899
:10164C001360054B00221A6000BF0C37BD4680BCEE
:10165C00704700BFA8000020A400002080B483B015
:10166C0000AF7860054A7B681360054B00221A6056
:10167C0000BF0C37BD4680BC704700BFB0000020D7
:10168C00AC00002080B400AF114B1B68002B0BDDAD
:10169C000F4B1B68013B0E4A13600D4B1B68002B54
:1016AC0002DC0C4B01221A600B4B1B68002B0BDD70
:1016BC00094B1B68013B084A1360074B1B68002B46
:1016CC0002DC064B01221A6000BFBD4680BC70478D
:1016DC00A8000020A4000020B0000020AC000020D6
:1016EC0080B485B000AF154B9B69144A43F00103DD
:1016FC009361124B9B6903F00103BB60BB680F4BFA
:10170C00DB690E4A43F08053D3610C4BDB6903F069
:10171C0080537B607B680A4B5B68FB60FB6823F043
:10172C00E063FB60FB6843F08063FB60044AFB688A
:10173C00536000BF1437BD4680BC70470010024098
:10174C000000014080B584B000AF78607B681B68F6
:10175C00B3F1804F13D10C4BDB690B4A43F00103FF
:10176C00D361094BDB6903F00103FB60FB680022CA
:10177C0000211C2000F0A1F91C2000F0BAF900BFD8
:10178C001037BD4680BD00BF0010024080B400AFD2
:10179C00FEE780B400AFFEE780B400AFFEE780B494
:1017AC0000AFFEE780B400AFFEE780B400AF00BF2F
:1017BC00BD4680BC704780B400AF00BFBD4680BC46
:1017CC00704780B400AF00BFBD4680BC704780B589
:1017DC0000AF00F07FF800BF80BD000080B500AF07
:1017EC00024800F0CFFF00BF80BD00BFB400002056
:1017FC0080B400AF00BFBD4680BC70470C480D499B
:10180C000D4A002302E0D458C4500433C4188C424F
:10181C00F9D30A4A0A4C002301E013600432A242B5
:10182C00FBD3FFF7E5FF01F0F5FAFFF7D9FD7047A1
:10183C000000002068000020B82E0008680000207E
:10184C0000010020FEE7000080B500AF084B1B68CC
:10185C00074A43F010031360032000F023F90F2014
:10186C0000F008F8FFF73CFF0023184680BD00BFCE
:10187C000020024080B582B000AF7860124B1A682D
:10188C00124B1B7819464FF47A73B3FBF1F3B2FB8E
:10189C00F3F3184600F03BF90346002B01D001236B
:1018AC000EE07B680F2B0AD8002279684FF0FF30CE
:1018BC0000F003F9064A7B681360002300E0012363
:1018CC0018460837BD4680BD5C000020640000202F
:1018DC006000002080B400AF054B1B781A46054B06
:1018EC001B681344034A136000BFBD4680BC70479D
:1018FC0064000020FC00002080B400AF024B1B6889
:10190C001846BD4680BC7047FC00002080B485B0F2
:10191C0000AF78607B6803F00703FB600C4BDB685F
:10192C00BB60BA684FF6FF031340BB60FB681A023A
:10193C00BB68134343F0BF6343F40033BB60044AFA
:10194C00BB68D36000BF1437BD4680BC704700BF76
:10195C0000ED00E080B400AF044BDB681B0A03F021
:10196C0007031846BD4680BC704700BF00ED00E081
:10197C0080B483B000AF0346FB7197F90730002B9E
:10198C000BDBFB7903F01F02064997F907305B0963
:10199C00012000FA02F241F8232000BF0C37BD46AB
:1019AC0080BC704700E100E080B483B000AF034618
:1019BC003960FB7197F90730002B0ADB3B68DAB210
:1019CC000C4997F907301201D2B20B4483F800236B
:1019DC000AE03B68DAB20849FB7903F00F03043BD9
:1019EC001201D2B20B441A7600BF0C37BD4680BC34
:1019FC00704700BF00E100E000ED00E080B489B06A
:101A0C0000AFF860B9607A60FB6803F00703FB6114
:101A1C00FB69C3F10703042B28BF0423BB61FB69DB
:101A2C000433062B02D9FB69033B00E000237B61E6
:101A3C004FF0FF32BB6902FA03F3DA43BB681A407A
:101A4C007B699A404FF0FF317B6901FA03F3D9436C
:101A5C007B680B40134318462437BD4680BC704747
:101A6C0080B582B000AF78607B68013BB3F1807FBA
:101A7C0001D301230FE00A4A7B68013B53600F211D
:101A8C004FF0FF30FFF790FF054B00229A60044B9C
:101A9C0007221A60002318460837BD4680BD00BFD8
:101AAC0010E000E080B582B000AF78607868FFF796
:101ABC002DFF00BF0837BD4680BD80B586B000AF96
:101ACC000346B9607A60FB7300237B61FFF742FF2A
:101ADC0078617A68B9687869FFF790FF024697F9E0
:101AEC000F3011461846FFF75FFF00BF1837BD4691
:101AFC0080BD80B582B000AF0346FB7197F907300B
:101B0C001846FFF735FF00BF0837BD4680BD80B5CE
:101B1C0082B000AF78607868FFF7A2FF03461846E2
:101B2C000837BD4680BD000080B48BB000AF786034
:101B3C00396000237B6200233B6248E101227B6A0F
:101B4C0002FA03F3FB613B681B68FA691340BB6143
:101B5C00BA69FB699A4240F037813B685B68A34ADB
:101B6C0093425ED0A14A934275D8A14A934258D071
:101B7C009F4A93426FD89F4A934252D09D4A9342B8
:101B8C0069D89D4A93424CD09B4A934263D89B4A56
:101B9C00934246D0994A93425DD8122B2AD8122BE5
:101BAC0059D801A252F823F02F1C0008091C000878
:101BBC001B1C00085D1C0008631C0008631C00084B
:101BCC00631C0008631C0008631C0008631C0008ED
:101BDC00631C0008631C0008631C0008631C0008DD
:101BEC00631C0008631C0008631C0008111C00081F
:101BFC00251C0008824A934213D02CE03B68DB681A
:101C0C003B6229E03B68DB6804333B6224E03B68C1
:101C1C00DB6808333B621FE03B68DB680C333B62DC
:101C2C001AE03B689B68002B02D104233B6213E053
:101C3C003B689B68012B05D108233B627B68FA69E2
:101C4C001A6109E008233B627B68FA695A6103E078
:101C5C0000233B6200E000BFBB69FF2B01D87B680F
:101C6C0001E07B6804337B61BB69FF2B02D87B6A84
:101C7C009B0002E07B6A083B9B003B617B691A6816
:101C8C000F213B6901FA03F3DB431A40396A3B69C4
:101C9C0001FA03F31A437B691A603B685B6803F033
:101CAC008053002B00F09080564B9B69554A43F0B3
:101CBC0001039361534B9B6903F00103BB60BB6849
:101CCC00514A7B6A9B08023352F82330FB607B6AD3
:101CDC0003F003039B000F2202FA03F3DB43FA68C1
:101CEC001340FB607B68494A93420DD07B68484A9D
:101CFC00934207D07B68474A934201D1022304E008
:101D0C00032302E0012300E000237A6A02F00302BD
:101D1C0092009340FA681343FB603B497B6A9B0833
:101D2C000233FA6841F823203B685B6803F4803384
:101D3C00002B06D0384B1A683749BB6913430B602C
:101D4C0006E0354B1A68BB69DB43334913400B6023
:101D5C003B685B6803F40033002B06D02E4B5A68AB
:101D6C002D49BB6913434B6006E02B4B5A68BB698A
:101D7C00DB43294913404B603B685B6803F48013D9
:101D8C00002B06D0244B9A682349BB6913438B6004
:101D9C0006E0214B9A68BB69DB431F4913408B60FB
:101DAC003B685B6803F40013002B06D01A4BDA680F
:101DBC001949BB691343CB6006E0174BDA68BB6962
:101DCC00DB4315491340CB607B6A01337B623B6874
:101DDC001A687B6A22FA03F3002B7FF4AFAE00BFC4
:101DEC0000BF2C37BD4680BC704700BF00003210CE
:101DFC000000311000002210000021100000121011
:101E0C0000001110001002400000014000080140C9
:101E1C00000C0140001001400004014080B485B06A
:101E2C0000AF78600B467B807B689A687B88134098
:101E3C00002B02D00123FB7301E00023FB73FB7B1F
:101E4C0018461437BD4680BC704780B483B000AFD1
:101E5C0078600B467B8013467B707B78002B03D01D
:101E6C007A887B681A6103E07B881A047B681A61A4
:101E7C0000BF0C37BD4680BC7047000080B586B0F3
:101E8C0000AF78607B68002B01D101236CE27B688A
:101E9C001B6803F00103002B00F08780924B5B68FA
:101EAC0003F00C03042B0CD08F4B5B6803F00C037A
:101EBC00082B12D18C4B5B6803F48033B3F5803F55
:101ECC000BD1894B1B6803F40033002B6CD07B685F
:101EDC005B68002B68D1012346E27B685B68B3F535
:101EEC00803F06D1804B1B687F4A43F480331360DC
:101EFC002EE07B685B68002B0CD17B4B1B687A4A0D
:101F0C0023F480331360784B1B68774A23F48023C7
:101F1C0013601DE07B685B68B3F5A02F0CD1724B8E
:101F2C001B68714A43F4802313606F4B1B686E4A25
:101F3C0043F4803313600BE06B4B1B686A4A23F449
:101F4C0080331360684B1B68674A23F4802313604B
:101F5C007B685B68002B13D0FFF7CEFC386108E080
:101F6C00FFF7CAFC02463B69D31A642B01D9032341
:101F7C00FAE15D4B1B6803F40033002BF0D014E046
:101F8C00FFF7BAFC386108E0FFF7B6FC02463B6984
:101F9C00D31A642B01D90323E6E1534B1B6803F4DA
:101FAC000033002BF0D100E000BF7B681B6803F00E
:101FBC000203002B63D04C4B5B6803F00C03002B2B
:101FCC000BD0494B5B6803F00C03082B1CD1464B20
:101FDC005B6803F48033002B16D1434B1B6803F072
:101FEC000203002B05D07B681B69012B01D0012358
:101FFC00BAE13D4B1B6823F0F8027B685B69DB00A0
:10200C00394913430B603AE07B681B69002B20D0E5
:10201C00364B01221A60FFF76FFC386108E0FFF7BE
:10202C006BFC02463B69D31A022B01D903239BE1BB
:10203C002D4B1B6803F00203002BF0D02A4B1B68BE
:10204C0023F0F8027B685B69DB00274913430B60C4
:10205C0015E0264B00221A60FFF74EFC386108E0B1
:10206C00FFF74AFC02463B69D31A022B01D9032322
:10207C007AE11D4B1B6803F00203002BF0D17B6847
:10208C001B6803F00803002B3AD07B689B69002B7C
:10209C0019D0174B01221A60FFF72EFC386108E0AB
:1020AC00FFF72AFC02463B69D31A022B01D9032302
:1020BC005AE10D4B5B6A03F00203002BF0D00120B8
:1020CC0000F0A6FA1CE00A4B00221A60FFF714FC81
:1020DC0038610FE0FFF710FC02463B69D31A022B64
:1020EC0008D9032340E100BF001002400000424227
:1020FC00800442429E4B5B6A03F00203002BE9D141
:10210C007B681B6803F00403002B00F0A6800023FF
:10211C00FB75974BDB6903F08053002B0DD1944B6F
:10212C00DB69934A43F08053D361914BDB6903F035
:10213C008053BB60BB680123FB758E4B1B6803F49B
:10214C008073002B18D18B4B1B688A4A43F4807325
:10215C001360FFF7D1FB386108E0FFF7CDFB0246B7
:10216C003B69D31A642B01D90323FDE0814B1B6817
:10217C0003F48073002BF0D07B68DB68012B06D155
:10218C007B4B1B6A7A4A43F0010313622DE07B6898
:10219C00DB68002B0CD1764B1B6A754A23F00103CC
:1021AC001362734B1B6A724A23F0040313621CE024
:1021BC007B68DB68052B0CD16D4B1B6A6C4A43F0BA
:1021CC00040313626A4B1B6A694A43F001031362EE
:1021DC000BE0674B1B6A664A23F001031362644BE6
:1021EC001B6A634A23F0040313627B68DB68002BD1
:1021FC0015D0FFF781FB38610AE0FFF77DFB024643
:10220C003B69D31A41F28832934201D90323ABE0E4
:10221C00574B1B6A03F00203002BEED014E0FFF7C0
:10222C006BFB38610AE0FFF767FB02463B69D31A88
:10223C0041F28832934201D9032395E04C4B1B6A3F
:10224C0003F00203002BEED1FB7D012B05D1484B93
:10225C00DB69474A23F08053D3617B68DB69002B31
:10226C0000F08180424B5B6803F00C03082B61D0BB
:10227C007B68DB69022B46D13F4B00221A60FFF7CB
:10228C003BFB386108E0FFF737FB02463B69D31A8A
:10229C00022B01D9032367E0354B1B6803F0007355
:1022AC00002BF0D17B681B6AB3F5803F08D1304B13
:1022BC005B6823F400327B689B682D4913434B60A9
:1022CC002B4B5B6823F474127B68196A7B685B6A1E
:1022DC000B43274913434B60274B01221A60FFF72E
:1022EC000BFB386108E0FFF707FB02463B69D31A8A
:1022FC00022B01D9032337E01D4B1B6803F000733D
:10230C00002BF0D02FE01C4B00221A60FFF7F4FAE0
:10231C00386108E0FFF7F0FA02463B69D31A022B4A
:10232C0001D9032320E0124B1B6803F00073002B30
:10233C00F0D118E07B68DB69012B01D1012313E09C
:10234C000B4B5B68FB60FB6803F480327B681B6A99
:10235C009A4206D1FB6803F470127B685B6A9A425E
:10236C0001D0012300E0002318461837BD4680BD7C
:10237C0000100240007000406000424280B584B002
:10238C0000AF786039607B68002B01D10123D0E06D
:10239C006A4B1B6803F007033A689A4210D9674BE3
:1023AC001B6823F0070265493B6813430B60634BC2
:1023BC001B6803F007033A689A4201D00123B8E086
:1023CC007B681B6803F00203002B20D07B681B6822
:1023DC0003F00403002B05D0594B5B68584A43F4B7
:1023EC00E06353607B681B6803F00803002B05D087
:1023FC00534B5B68524A43F460535360504B5B68D9
:10240C0023F0F0027B689B684D4913434B607B685B
:10241C001B6803F00103002B40D07B685B68012B29
:10242C0007D1474B1B6803F40033002B15D1012354
:10243C007FE07B685B68022B07D1414B1B6803F084
:10244C000073002B09D1012373E03D4B1B6803F093
:10245C000203002B01D101236BE0394B5B6823F0A5
:10246C0003027B685B68364913434B60FFF744FA01
:10247C00F8600AE0FFF740FA0246FB68D31A41F213
:10248C008832934201D9032353E02D4B5B6803F050
:10249C000C027B685B689B009A42EBD1274B1B6854
:1024AC0003F007033A689A4210D2244B1B6823F0BE
:1024BC00070222493B6813430B60204B1B6803F057
:1024CC0007033A689A4201D0012332E07B681B680B
:1024DC0003F00403002B08D0194B5B6823F4E06273
:1024EC007B68DB68164913434B607B681B6803F001
:1024FC000803002B09D0124B5B6823F460527B68F5
:10250C001B69DB000E4913434B6000F021F80246B7
:10251C000B4B5B681B0903F00F030A49CB5C22FAD7
:10252C0003F3094A1360094B1B681846FFF7A2F91D
:10253C00002318461037BD4680BD00BF0020024066
:10254C0000100240A02E00085C000020600000205B
:10255C0090B48AB000AF2A4B3C1D0FCB84E80F001F
:10256C0040F201233B800023FB610023BB6100236D
:10257C007B6200237B6100233B62224B5B68FB6127
:10258C00FB6903F00C03042B02D0082B03D02DE0C5
:10259C001D4B3B622DE0FB699B0C03F00F0307F115
:1025AC002802134413F8243C7B61FB6903F4803349
:1025BC00002B13D0134B5B685B0C03F0010307F18A
:1025CC002802134413F8283CBB617B690E4A02FBBA
:1025DC0003F2BB69B2FBF3F37B6204E07B690B4A49
:1025EC0002FB03F37B627B6A3B6202E0064B3B62BD
:1025FC0000BF3B6A18462837BD4690BC704700BFE9
:10260C00902E00080010024000127A0000093D00D4
:10261C0080B485B000AF78600A4B1B680A4AA2FBF5
:10262C0003235B0A7A6802FB03F3FB6000BFFB68C1
:10263C005A1EFA60002BF9D100BF00BF1437BD46FB
:10264C0080BC70475C000020D34D621080B582B016
:10265C0000AF78607B68002B01D1012341E07B68DF
:10266C0093F83D30DBB2002B06D17B68002283F857
:10267C003C207868FFF766F87B68022283F83D20DF
:10268C007B681A687B6804331946104600F06AFAB6
:10269C007B68012283F846207B68012283F83E2068
:1026AC007B68012283F83F207B68012283F840205D
:1026BC007B68012283F841207B68012283F8422049
:1026CC007B68012283F843207B68012283F8442035
:1026DC007B68012283F845207B68012283F83D202A
:1026EC00002318460837BD4680BD000080B485B075
:1026FC0000AF78607B6893F83D30DBB2012B01D0E2
:10270C00012335E07B68022283F83D207B681B683F
:10271C00DA687B681B6842F00102DA607B681B6830
:10272C00164A934209D07B681B68B3F1804F04D0E2
:10273C007B681B68124A934211D17B681B689B68AB
:10274C0003F00703FB60FB68062B10D07B681B684B
:10275C001A687B681B6842F001021A6007E07B680C
:10276C001B681A687B681B6842F001021A60002320
:10277C0018461437BD4680BC704700BF002C014082
:10278C000004004080B582B000AF78607B681B68A5
:10279C001B6903F00203022B22D17B681B68DB68E8
:1027AC0003F00203022B1BD17B681B686FF0020243
:1027BC001A617B6801221A777B681B689B6903F09E
:1027CC000303002B03D0786800F0B1F905E07868BA
:1027DC0000F0A4F9786800F0B3F97B6800221A774E
:1027EC007B681B681B6903F00403042B22D17B68F4
:1027FC001B68DB6803F00403042B1BD17B681B688C
:10280C006FF004021A617B6802221A777B681B68DE
:10281C009B6903F44073002B03D0786800F087F9B0
:10282C0005E0786800F07AF9786800F089F97B683F
:10283C0000221A777B681B681B6903F00803082BBE
:10284C0022D17B681B68DB6803F00803082B1BD1C3
:10285C007B681B686FF008021A617B6804221A7788
:10286C007B681B68DB6903F00303002B03D07868DB
:10287C0000F05DF905E0786800F050F9786800F038
:10288C005FF97B6800221A777B681B681B6903F071
:10289C001003102B22D17B681B68DB6803F010033C
:1028AC00102B1BD17B681B686FF010021A617B68C0
:1028BC0008221A777B681B68DB6903F44073002BD2
:1028CC0003D0786800F033F905E0786800F026F959
:1028DC00786800F035F97B6800221A777B681B68F2
:1028EC001B6903F00103012B0ED17B681B68DB68AD
:1028FC0003F00103012B07D17B681B686FF0010209
:10290C001A617868FEF784FE7B681B681B6903F00C
:10291C008003802B0ED17B681B68DB6803F080037F
:10292C00802B07D17B681B686FF080021A61786876
:10293C0000F067FA7B681B681B6903F04003402BAF
:10294C000ED17B681B68DB6803F04003402B07D17A
:10295C007B681B686FF040021A61786800F0F9F828
:10296C007B681B681B6903F02003202B0ED17B684E
:10297C001B68DB6803F02003202B07D17B681B68E6
:10298C006FF020021A61786800F032FA00BF083745
:10299C00BD4680BD80B584B000AF786039607B687F
:1029AC0093F83C30012B01D10223B3E07B68012268
:1029BC0083F83C207B68022283F83D207B681B68EF
:1029CC009B68FB60FB6823F07703FB60FB6823F4D8
:1029DC007F43FB607B681B68FA689A603B681B68E6
:1029EC00B3F5005F3ED0B3F5005F00F28780B3F51E
:1029FC00805F00F08580B3F5805F7FD8702B1AD094
:102A0C00702B7BD8602B50D0602B77D8502B3CD0C0
:102A1C00502B73D8402B58D0402B6FD8302B64D010
:102A2C00302B6BD8202B60D0202B67D8002B5CD0A0
:102A3C00102B5AD062E07B6818683B6899683B6839
:102A4C005A683B68DB6800F05CF97B681B689B6824
:102A5C00FB60FB6843F07703FB607B681B68FA68DC
:102A6C009A604EE07B6818683B6899683B685A68C6
:102A7C003B68DB6800F045F97B681B689A687B68EB
:102A8C001B6842F480429A603BE07B6818683B68A4
:102A9C0059683B68DB681A4600F0BCF87B681B6819
:102AAC005021184600F013F92BE07B6818683B683E
:102ABC0059683B68DB681A4600F0DAF87B681B68DB
:102ACC006021184600F003F91BE07B6818683B682E
:102ADC0059683B68DB681A4600F09CF87B681B68F9
:102AEC004021184600F0F3F80BE07B681A683B684D
:102AFC001B681946104600F0EAF802E000BF00E03F
:102B0C0000BF7B68012283F83D207B68002283F89C
:102B1C003C20002318461037BD4680BD80B483B0DE
:102B2C0000AF786000BF0C37BD4680BC704780B4E6
:102B3C0083B000AF786000BF0C37BD4680BC7047D7
:102B4C0080B483B000AF786000BF0C37BD4680BC4A
:102B5C00704780B483B000AF786000BF0C37BD46BF
:102B6C0080BC704780B485B000AF786039607B68FA
:102B7C001B68FB607B68254A934207D07B68B3F1E6
:102B8C00804F03D07B68224A934208D1FB6823F024
:102B9C007003FB603B685B68FA681343FB607B68FF
:102BAC001A4A934207D07B68B3F1804F03D07B68FD
:102BBC00174A934208D1FB6823F44073FB603B68CF
:102BCC00DB68FA681343FB60FB6823F080023B6808
:102BDC005B691343FB607B68FA681A603B689A6810
:102BEC007B68DA623B681A687B689A627B68074A82
:102BFC00934203D13B681A697B681A637B68012294
:102C0C005A6100BF1437BD4680BC7047002C014090
:102C1C000004004080B487B000AFF860B9607A60FF
:102C2C00FB681B6A7B61FB681B6A23F00102FB6873
:102C3C001A62FB689B693B613B6923F0F0033B61C3
:102C4C007B681B013A6913433B617B6923F00A03E0
:102C5C007B617A69BB6813437B61FB683A699A6153
:102C6C00FB687A691A6200BF1C37BD4680BC70478E
:102C7C0080B487B000AFF860B9607A60FB681B6AFB
:102C8C0023F01002FB681A62FB689B697B61FB688E
:102C9C001B6A3B617B6923F470437B617B681B037C
:102CAC007A6913437B613B6923F0A0033B61BB68EA
:102CBC001B013A6913433B61FB687A699A61FB68B3
:102CCC003A691A6200BF1C37BD4680BC704780B49D
:102CDC0085B000AF786039607B689B68FB60FB68EF
:102CEC0023F07003FB603A68FB68134343F007035F
:102CFC00FB607B68FA689A6000BF1437BD4680BCE5
:102D0C00704780B487B000AFF860B9607A603B6000
:102D1C00FB689B687B617B6923F47F437B613B6829
:102D2C001A027B681A43BB6813437A6913437B61AD
:102D3C00FB687A699A6000BF1C37BD4680BC70473F
:102D4C0080B485B000AF786039607B6893F83C3014
:102D5C00012B01D1022341E07B68012283F83C2046
:102D6C007B68022283F83D207B681B685B68FB60F4
:102D7C007B681B689B68BB60FB6823F07003FB607F
:102D8C003B681B68FA681343FB607B681B68FA6836
:102D9C005A607B681B68144A934209D07B681B6895
:102DAC00B3F1804F04D07B681B68104A93420CD15E
:102DBC00BB6823F08003BB603B685B68BA68134355
:102DCC00BB607B681B68BA689A607B68012283F8D9
:102DDC003D207B68002283F83C20002318461437E2
:102DEC00BD4680BC704700BF002C01400004004071
:102DFC0080B483B000AF786000BF0C37BD4680BC98
:102E0C00704780B483B000AF786000BF0C37BD460C
:102E1C0080BC704770B500260C4D0D4C641BA41083
:102E2C00A64209D100F022F800260A4D0A4C641B78
:102E3C00A410A64205D170BD55F8043B9847013645
:102E4C00EEE755F8043B98470136F2E7B02E000840
:102E5C00B02E0008B02E0008B42E00080346024421
:102E6C00934200D1704703F8011BF9E7F8B500BF96
:102E7C00F8BC08BC9E467047F8B500BFF8BC08BC4F
:042E8C009E467047A7
:102E900002030405060708090A0B0C0D0E0F10109B
:102EA00000000000000000000102030406070809FA
:042EB00031010008E4
:042EB4000D01000804
:102EB8003F000000060000005B0000004F0000001B
:102EC800660000006D000000FD0000000700000023
:102ED800FF000000EF0000000100000001000000FA
:102EE80001000000010000000100000001000000D6
:102EF80001000000010000000100000001000000C6
:102F08000100000001000000C80000000024F400D7
:082F18001000000001000000A0
:0400000508001809CE
:00000001FF
